:020000020000FC
:04000000BAC223C499
:0400080030C449C1F6
:100040005845524320322056312E303031207C200A
:100050004275696C743A204A756E20313420323012
:040060003036000036
:10008000152A00151D0015150000000000000000D5
:100090006FB566956695862E00D221E0A22E0ED30E
:1000A00000610D7FD9C3E6D1D7C304FD01C005C0EF
:1000B000F0D1B29904600F7E0BC0B29B01C003C0A7
:1000C000E8D196D104C0E3D1006196D100C0139568
:1000D00004FDD6C3183119F01C3011F0D1C3ACC1E6
:1000E000006493D161E0A62E64E3962EC9C3E3E9D0
:1000F000F0E055D30EF0046008950D7F24E0A22EA9
:10010000DDD202D3A9C36FB5862EBBD10062139591
:10011000A3C31030C1F3AED19FC3B0D104FD0BC057
:10012000006105FD11C0B29903C00E7F61D1A8C363
:10013000016062D1A5C30F7E00FD03C0B29B0460C5
:1001400009C0B299046006C00F7D0E7FB2990160AC
:10015000B5D296C31C3011F0139592C36DC10D7FBB
:1001600028E0A22EABD2D0D277C36FB56695669544
:10017000862E80D10F7D13956FC31030B1F37AD1E5
:100180006BC37CD104FD0FC00061B29B06C00E7F23
:1001900005FD2ED105FF12D073C3016005FD2CD1E2
:1001A00005FF0ED06DC30F7E05FF0FC000FF03C01B
:1001B000B29B046021C0B29904601EC070E002C00E
:1001C00071E000C0660C672A08951395173039F066
:1001D000183071F0183109F053C3006251C3662D15
:1001E0006C7121F4006204D1105F4AC305D148C389
:1001F00000FD46C3195F44C3163211F0139540C386
:100200001BC16FB56695862E3CD122E0A22E56D238
:1002100000610D7F21C32ED11FC330D105FD07C062
:1002200004FD01C009C00F7EB29911C029C3B29B61
:1002300004600F7D006124C3B29B04C000C0006154
:10024000D7D003C00062D8D000C0139519C31C30AA
:1002500031F01F3021F0143111F0046011C3ECC0F3
:10026000A7FD089569B761FD0895A97FA26035E2F1
:100270005DD0AF7B60EB69BDAF7B60EBE62E60E5E8
:10028000F62EDD2462E0C62EC8BC63E36ABD6CE0D6
:1002900063BF2AD2089530D266276ABD08956F934E
:1002A0006FB76F93CE1431F0C394C8BC6F916FBF1A
:1002B0006F911895DF1411F0D394F8CFA6FD0DC0FF
:1002C000A064DD246FEFE62E60E5F62ECC24C8BCDA
:1002D0006AB56F7C60626ABDE9CFAF7BDD2460EBFD
:1002E000E62E60E0F62ECC24C8BC6AB56F7C606355
:1002F0006ABDDCCF6F9310D063E36ABD64E063BF77
:100300006F9108956F9366276ABD6F9108956F93FB
:1003100064E068BD6F9108956F9368E168BD6F9167
:1003200008956F936FEF68BD6F9108956FEF631B32
:100330006FBD6FE060BF6CB562606CBDE5D1A4FDC0
:100340000895A160A0FDFECF08956A2F667039F070
:10035000A25066276FBD68B7646068BF04C0AE7FF7
:10036000AF7EDAD100C06F916FBF9F918F917F9167
:100370006F91189501FD1FC003FD16C02AD068E0DB
:1003800060BF6CB562606CBD66276FBDBDD1026099
:1003900008609FD161C201FD61C023FDF2CE20FD46
:1003A00084CE21FD3ACFB9CE23FDE7CE20FD7BCE12
:1003B00021FD31CFAECE6FB5AFD1A3FDA8DF603741
:1003C00030F4603518F4603418F497CEC8CE60CE9F
:1003D00018CF1127AA24002764E0962EFF27E0E912
:1003E000662761936193619361936193619308952B
:1003F00006FD04C0AA0C04C006FDFCCFAA0CA39401
:100400009394692D677009F00895692D6695669536
:1004100066956695FF27E0E9E60FA08260E1960EFB
:1004200060EF9622AA240895AA0C9394692D677010
:10043000D9F7EBDF08955BCEF7DFA3FD6DDF6CD15D
:10044000077F20FD54DE02FD02C004D019C2002740
:1004500035D116C2A06266276BBF08950460ECCF49
:100460006FEF671B6FBD68E060BF6CB562606CBD0D
:100470004BD10895782D76957695F2CF782D769597
:10048000EFCF782D7695872F7695780FE9CF782D59
:10049000E7CF782D7695780DE3CF782D770F770F0E
:1004A000780DDECF6BB76F7B6BBFA061A97FA660B5
:1004B0003FEF3CDFB49909C0A4FDFCCFB09905C063
:1004C00050D1A3FD31C1A860EDCFAF7E25D1A97F6A
:1004D000F5D0A3FD1ED079C0E6E961D11EF000C0C1
:1004E0005527E7C053955C3009F0E3C04030A1F0D8
:1004F0004630B9F0E9E953D166F1FF27E42FE15026
:100500006E2FEE0FE60F60E6E60F5BD1642F18D179
:1005100027C07DD1EFDE0895E9E953D1642F10D1D2
:100520001FC0E9E93CD12EF0AF77C0E2D0E076D130
:1005300017C0A068C0E2DAE571D112C04DD102C087
:100540006FE0FED055274427A77F4FD1DBDE88DE42
:10055000B0C0FF27E0E96627619361936193CDCF37
:10056000463071F3FF27E0E9662761936193619359
:10057000552743959EC06FE56DBF61E06EBF332484
:100580000ED012D016D07894A97FA26035E2CEDECC
:1005900023D1E7D0F5D012D063DE90D016C060E84A
:1005A00066BD61E066BD0895002755274427AA2748
:1005B000089562E067BB62E068BB089560E23BD1EA
:1005C0006A3509F00895A0680895A5FD0CC0B0999A
:1005D00003C0A3FF45DEF9CF5EDEC19AA3FDAECF17
:1005E000B49B60CFF2CFA3FD77CFECE6D8D0B09923
:1005F00056F1B09914C0E0E6D2D066F0E3E6CFD071
:1006000056F0E6E6CCD046F0E9E6C9D036F0AF7D4C
:1006100055D0DBCF18C042C021C02BC04AC0E6E98C
:10062000BED02EF453955233C9F7552702C0552733
:1006300040C0E0E6B4D076F3E3E6B1D05EF3E6E6A0
:10064000AED056F336C0BC9AA97FA06038E16EDE0A
:10065000BC98A97FA0603AEF69DE2BC0BB9AA97F46
:10066000A06038E163DEBB98A97FA0603AEF5EDE50
:1006700020C0BC9AA97FA06038E158DEBC98A97F51
:10068000A06038EC53DEBB9AA97FA06038E14EDE53
:10069000BB98A97FA0603AEF49DE0BC0BC9AA97F46
:1006A000A26035E243DEBC98A97FA0603AEF3EDE4F
:1006B00000C0E6E986D0AF7D01D087CF6F9365B7E4
:1006C00062606E7F65BF6FEF6ABF60E46BBF6F9162
:1006D00008956F9365B76260616065BF6FEF6ABF31
:1006E00060E46BBF6F9108956F93626068BF69B7F4
:1006F000626069BF6F9108956F93626068BF69B768
:100700006D7F69BF6F9108956F93646068BF69B72B
:10071000646069BF6F9108956F93646068BF69B743
:100720006B7F69BF6F9108953BBE68D0D0E0C0E297
:1007300075D0A97FA06038ECF9DD60E001D0F9CF79
:1007400077276695771F6695771F6695771F63E015
:10075000762E769510F014D001C003D07A94C9F7A4
:1007600008956F93A97FA0603FE3E0DDC198D9DDD4
:10077000A97FA0603DE8DADDC19ACEDD6F910895D2
:100780006F93A97FA0603FE3D1DDC198CADDA97F47
:10079000A0603CE2CBDDC19ABFDD6F91089561910D
:1007A00071918191FF27E0E99191691741F491914D
:1007B000791729F49191891711F468940895E894B0
:1007C0000895EF93FF27E0E9619171918191EF9195
:1007D0006193719381930895FF27E0E66E2F605631
:1007E0002AD06193EF36D1F70895FF27E0E6CE2FA8
:1007F000C056D19113D0EF36D1F70895F0E0E0E87C
:10080000CC27D5910BD0C395CF30D9F70895662763
:10081000FF27E0E66193EA36E9F70895F894E19955
:10082000FDCF60E06CBB66276FBBCEBBDDBBE29A41
:10083000E19A78940895F894E199FDCF77277FBBEA
:100840006EBBE09A6DB3789408956F937F938F9306
:100850009F936FB76F938ECD6FEF6ABF6F916FBF2E
:100860009F918F917F916F9118956F937F938F9345
:100870009F936FB76F93A0FD68CDA4FD66CD8BCD20
:10088000646068BF6F916FBF9F918F917F916F91EF
:020890001895B9
:00000001FF
